:020000040000FA
:1000000048090020250200006502000009020000E6
:10001000690200006B0200006D0200000000000099
:100020000000000000000000000000006F0200005F
:100030007102000000000000730200007502000061
:1000400077020000770200007702000077020000CC
:1000500077020000770200007702000077020000BC
:1000600077020000770200007702000077020000AC
:10007000770200007702000077020000770200009C
:10008000770200007702000077020000770200008C
:10009000770200007702000077020000770200007C
:1000A000770200007702000077020000770200006C
:1000B000770200007702000077020000770200005C
:1000C00077020000FD0F00007702000077020000B9
:1000D0004110000077020000770200007702000064
:1000E0002509000077020000770200007702000077
:1000F000770200007702000077020000770200001C
:10010000770200007702000077020000770200000B
:1001100077020000770200007702000077020000FB
:1001200077020000770200007702000077020000EB
:1001300077020000770200007702000077020000DB
:1001400077020000770200007702000077020000CB
:1001500077020000770200007702000077020000BB
:1001600077020000770200007702000077020000AB
:10017000770200007702000077020000770200009B
:10018000770200007702000077020000770200008B
:10019000770200007702000077020000770200007B
:1001A000770200007702000077020000770200006B
:1001B000770200007702000077020000770200005B
:1001C000770200007702000077020000770200004B
:1001D000770200007702000077020000770200003B
:1001E000770200007702000077020000770200002B
:1001F00077020000DFF80CD000F08CF800480047D0
:10020000B91900004809002004207146084202D0B4
:10021000EFF3098001E0EFF308807146004A1047D0
:100220008D08000014484FF0590101604FF016018D
:1002300001604FF0880101601048416841F480413D
:1002400041600F48416841F002014160416841F05E
:10025000040141600B48804707484FF000010160EE
:1002600009480047FEE7FEE7FEE7FEE7FEE7FEE798
:10027000FEE7FEE7FEE7FEE7000100400002004067
:1002800000700040A50E0000F501000040EA0103E7
:100290009B0703D009E008C9121F08C0042AFAD23C
:1002A00003E011F8013B00F8013B521EF9D2704700
:1002B0002DE9F05F0546002092469B46884606469B
:1002C000814640241BE0284641464746224600F02E
:1002D00042F853465A46C01A914110D31146184667
:1002E000224600F029F82D1A67EB01084F462246F6
:1002F0000120002100F020F817EB00094E41201EDC
:10030000A4F10104DFDC484631462A464346BDE8F5
:10031000F09F0000064C074D06E0E06840F0010346
:1003200094E8070098471034AC42F6D3FFF766FF15
:10033000E01A0000001B0000202A04DB203A00FA2B
:1003400002F1002070479140C2F1200320FA03F32C
:10035000194390407047202A04DB203A21FA02F02A
:100360000021704721FA02F3D040C2F120029140EF
:100370000843194670474FF08040D0F8401241F4CE
:100380008031C0F84012704700F01F0201219140F7
:10039000034A800F02EB800002680A430260704744
:1003A000040200402DE9F84F0D460446FFF7E3FF35
:1003B0004FF08040484ED0F80012C4B141F0040123
:1003C000C0F80012102000F009FA4FF4002000904D
:1003D000424843492844B34688426DD84FF000094B
:1003E0004FF0FF324F464E46AE46012015E041F039
:1003F0000101C0F80012012000F0F0F90020E6E74A
:10040000F2B3032839D0042802D0022805D102E033
:100410004FEA8E0501E04FEA4E0502236AB3BBFBAB
:10042000F3F1304CDFF8BCC00C44CCF1000C644557
:1004300020D80224C1F35D0ADFF8A0C00AFB04F152
:1004400001EB0C08DFF8A0C0E0450ED8B1EB950F2A
:1004500002D9A1EB950101E0C1EB9501914204D2D3
:100460000A0099462746064604D040F20121641C42
:100470008C42E1D95B1C202BD0D9401C042800E021
:1004800000E0BDD91948009900EB8630184A0843AE
:1004900002EB49210843B91E08434FF08041C1F8DF
:1004A0004002042000F09AF906FB09F6BBFBF6F0C7
:1004B00078434000BDE8F88F5CB10E494FF08040B2
:1004C000C0F84012042000F089F9BDE8F84F00F0B0
:1004D0009FB844F21E21F1E7001BB700800F05FD15
:1004E0008074D21A00F7C2FFC068780400C0FFFF12
:1004F00000FEFFFF1E4208004FF08041D1F80022AD
:100500000243C1F80022704710B500F0A7FC014873
:10051000006810BD000000204FF08040D0F80002BD
:10052000C00700D000487047001BB7004FF0804064
:10053000D0F80002800702D54FF400407047002039
:100540007047000010B500F089FC4FF08041D1F8F1
:1005500034024207134817D0D1F8342202F00702C0
:10056000012A13D0D1F8342202F00702022A10D057
:10057000D1F8342202F00702032A0DD0D1F8341248
:1005800001F0070104290AD0006810BD0068400886
:1005900010BD0068800810BD0068C00810BD00686C
:1005A000000910BD0000002010B500F057FC4FF00E
:1005B0008041D1F8340210F0700F144817D0D1F8F0
:1005C0003422C2F30212012A13D0D1F83422C2F32A
:1005D0000212022A10D0D1F83422C2F30212032AE6
:1005E0000DD0D1F83412C1F3021104290AD00068E9
:1005F00010BD0068400810BD0068800810BD00688C
:10060000C00810BD0068000910BD000000000020F7
:1006100008B510A10020096800914FF08041D1F881
:10062000401211F4A02F13D10B488A0310D4C1F348
:100630000800C1F38132094B801C1DF80220C1F370
:1006400044215843491C11FB02F1B0FBF1F0C000FA
:1006500008BD000001020204001BB700C0C62D0047
:1006600070B54FF080440646D4F8500200F01005F3
:100670001B48864200D90646D4F8000240F0040028
:10068000C4F80002102004F5007400F0A7F82069F7
:1006900040F007002061206A20F00F0020622068EF
:1006A000A4F50074C007314604D00020FFF77AFE9D
:1006B000064608E04FF40020FFF774FE0646D4F823
:1006C000500200F010050021022000F00BF82DB9B7
:1006D000D4F8000220F00400C4F80002304670BDD7
:1006E00000B0710B2DE9F0414FF080440746D4F87B
:1006F00050020E4600F01005D4F8000240F004004D
:10070000C4F80002102004F5007400F067F82069B6
:1007100040F007002061206A20F00F003043206283
:10072000206920F0070038432061A4F5007400F030
:1007300095FB002D05D1D4F8000220F00400C4F888
:100740000002BDE8F0810000F0B510F47F3F2ED02C
:100750004FF08043D3F8F431DFF878C0DFB21D4B9F
:10076000C0F381440C3B6FEA90450CF1040603EBA7
:100770008403012F02D0022C0DD001E0022C02D004
:10078000AC070AD00AE0C343DC06134B06D000F0E6
:100790001F041D2C02D0634600E033461C68C0F3E2
:1007A0008725C0F34416B540AC4314431C60420E89
:1007B00052070ED0084BC0F30172183B03EB8202C4
:1007C0001368C0F34264C0F304508440A3430B4356
:1007D0001360F0BD2C0200402802004070B50546B1
:1007E0000B480C4E0124006841080020A20730602D
:1007F00001E0491E06D0D2F8503235EA0300F8D1A4
:1008000009B103E000244FF0FF303060204670BD96
:10081000000000203000002010B54FF08040816EB5
:1008200021F00F018166816E21F0F0018166816EF9
:1008300021F470618166094C01221146204600F0C6
:100840000FF801220221204600F00AF8204601227A
:10085000BDE81040042100F003B80000C041004092
:10086000F0B500230127032507FA03F48C4309D1CF
:1008700006685C0005FA04FC26EA0C0602FA04F499
:10088000264306605B1C102BEED3F0BD044603A08C
:1008900000F0CEFD204601F09FF8FEE7496E2048AB
:1008A000617264204661756C742048616E646C6589
:1008B000720A000000F01F020121914040098000EF
:1008C00000F1E020C0F8001170470000BFF34F8F27
:1008D00005480168054A01F4E06111430160BFF376
:1008E0004F8F00BFFDE700000CED00E00400FA05AB
:1008F00001238B404AB1012A0DD0022A04D1D0F83D
:1009000038141943C0F838147047D0F81814194334
:10091000C0F81814704700EB0110016821F0800145
:10092000016070472DE9F05F5A480068DFF868B150
:10093000DBF80020DFF86491120CC9F85820DBF8CE
:10094000101009F15C0A090CCAF85810C30716D038
:1009500053A000F06DFD4F4C241D2068C00704D04B
:1009600057A000F065FD012020602068800704D5B5
:100970005AA000F05DFD02202060BDE8F09F474BCB
:100980005FEA8078D3E912461F6C04EB0603434C00
:1009900004F15C04256CD4E912C4A44433D53D4968
:1009A000083108683D4AC0074FF01F0BA2F108024A
:1009B00012D04FF00108C1F800803E44761C5B1C49
:1009C00003F03F03C9F84060C9E9123BC9F8508001
:1009D000106840F00200106008688007CDD5022042
:1009E00008602919491C0CF1010CCAF840100CF0E0
:1009F0003F01CAE9121B0121CAF85010106840F0EB
:100A000004001060B9E75FEAC0584FF0000E1AD535
:100A1000B11A3944C9F84010991A01F03F01C9E9E7
:100A2000121200231A4619465C465846C9F850E08F
:100A300000F086F817494FF480720A60012245F2EF
:100A4000555300211CE080051FD5621A2A44CAF8BC
:100A50004020ACEB010202F03F02CAE91221002360
:100A60001A4601215C465846CAF850E000F068F882
:100A700008494FF400720A60012245F255531146AD
:100A80002046BDE8F05F00F05BB8BDE8F05F1AA05B
:100A900000F0CEBC1C840040008000403C000020E0
:100AA0007461726765742061626F727420696E741C
:100AB0006572727570742021213A0D0A00000000E1
:100AC00055415254315F50444D415F4F50454E4562
:100AD000445F43485F52580D0A000000554152548C
:100AE000325F50444D415F4F50454E45445F43484F
:100AF0005F52580D0A000000756E6B6E6F776E20A6
:100B0000696E746572727570742021210D0A00007F
:100B100070B50022094D0126134606FA02F40C4274
:100B200003D000EB02142360AB54521C102AF4D300
:100B3000D0F800240A43C0F8002470BDF40000205F
:100B400010B511B101290CD105E0D0F840446FF384
:100B50000F041C4303E0D0F8404463F31F44C0F883
:100B6000404401238B40D0F834140AB1194300E00B
:100B70009943C0F8341410BD30B54D4D039C102975
:100B80006A547DD2DFE801F008101720272F363F86
:100B9000464E555E656D7489D0F8805425F07F050A
:100BA0001543C0F880546BE0D0F8805425F4FE451E
:100BB00045EA022205E0D0F8805425F4FE0545EA16
:100BC0000242C0F880245BE0D0F8805425F0FE4556
:100BD00045EA0262F5E7D0F8845425F07F05154315
:100BE000C0F884544CE0D0F8845425F4FE4545EA1E
:100BF000022205E0D0F8845425F4FE0545EA0242BD
:100C0000C0F884243CE0D0F8845425F0FE4545EA41
:100C10000262F5E7D0F8885425F07F051543C0F847
:100C200088542DE0D0F8885425F4FE4545EA022288
:100C300005E0D0F8885425F4FE0545EA0242C0F8E4
:100C400088241DE0D0F8885425F0FE4545EA02626C
:100C5000F5E7D0F88C5425F07F051543C0F88C5487
:100C60000EE0D0F88C5425F4FE4545EA022205E05A
:100C7000D0F88C5425F4FE0545EA0242C0F88C24D5
:100C800000EB0110016821F003016BB1891C0160C8
:100C900008490968611AC16030BDD0F88C5425F04C
:100CA000FE4545EA0262E9E7491C016030BD0000EB
:100CB000F40000203C8400400B4810B5094B0C4A5E
:100CC0000A490360C0E901120A4A1468041B10347F
:100CD000C460C0E904310649203181611168411ABC
:100CE000C16110BD76031F00040100200010074001
:100CF0003C0000203C8400400B4810B5094B0C4AD6
:100D00000A490360C0E901120A4A1468041B10343E
:100D1000C460C0E904310649203181611168411A7B
:100D2000C16110BD76031F00240100200020074090
:100D3000980000203C84004070B55920840716219B
:100D40008822C4F80001C4F80011C4F80021D4F8C6
:100D50000031002BF5D04FF04020D0F8401121F0A9
:100D6000F001C0F840110420FFF7C6FB1020FFF788
:100D700035FD2748FFF774FC1120C4F83402012028
:100D8000FFF702FB234E3046FFF7FEFA4FF04075A7
:100D9000002229463046FFF7D7FC1F4E3046FFF7AA
:100DA000F3FA0022A9003046FFF7CEFC1B4E304676
:100DB000FFF7EAFA002229463046FFF7C5FCE06B50
:100DC00020F47F00E063E06B40F4CC00E063206B34
:100DD00020F470602063206B40F400602063A06BFF
:100DE00020F00F00A063A06B40F00700A0630C4D43
:100DF0002846FFF7C9FA00224FF4E0412846FFF7E2
:100E0000A3FC00F02BF80020C4F8000170BD000026
:100E100000B0710B103D8057913DA057123C8C776C
:100E20000300C05E0121044A814002EB10600268A9
:100E30000A438A43026070470800004006498A69F5
:100E40001202FCD40A2804D10D220A608A69120217
:100E5000FCD40860704700000000074010B5FFF7A1
:100E6000D7FB0E4A4FF080439060D3F8101201F088
:100E70000701022903D002F10C0050F82100D3F839
:100E8000201201F00F01491CB0FBF1F00449106081
:100E900008444900B0FBF1F0506010BD0000002094
:100EA00020A107001A48016841F470010160194847
:100EB000C16C21F00F0141F00801C1644FF0804086
:100EC000D0F8981241F48021C0F89812D0F8081296
:100ED00041F00201C0F808120F49D1F8042102F0D4
:100EE000F732C1F80421D1F8082102F0F732C1F835
:100EF0000821D0F8081221F00201C0F808124FF0C2
:100F00004020D0F8401121F0F001C0F840117047A6
:100F100088ED00E000C000400010044010B50A4C0D
:100F20004FF47A724FF00061204600F04BF82068D1
:100F300040F0005020602120FFF7BCFC206840F00A
:100F40008040206010BD00000001054010B588B051
:100F50000446202217496846FFF798F9164A174BAE
:100F60009003944204D1D0F81402C0F3022110E09F
:100F70009C4204D1D0F81402C0F3023109E01049B8
:100F8000D0F814028C4202D1C0F3024101E0C0F358
:100F90000251022903D05DF8210008B010BD94422F
:100FA00001D09C4202D1FFF7CDFAF6E7FFF7FCFA39
:100FB000F3E70000C01A00000000054000010540F2
:100FC0000010054070B516460D460446FFF7BEFFFB
:100FD0000023B6EB500F01D9022206E0B0FBF6F277
:100FE000130E02D0591CB2FBF1F21D432560626062
:100FF0005B1C5A43B0FBF2F070BD00000D4800B519
:101000008168C1F30001002912D00121816000F044
:1010100037FD094A50684FF47A71B0FBF1F301FBD8
:10102000130020B90548016881F001010160506892
:1010300000BD00000001054034000020C049004010
:1010400010B50B4CE06910F4885F02D104E000F0A9
:10105000C5F9A1694904FAD5A169204611F0710FBB
:1010600005D0BDE810404FF4105100F0ABB810BDF2
:101070000000074010B51E48FFF7D4FE1D4C4FF48A
:10108000E131204600F0BCF81421204600F09CF924
:10109000A06820F01000A060A06840F02000A060D0
:1010A000606840F61101084360602420FFF702FCED
:1010B000FFF72AFA014610A000F0BAF9FFF72CFA60
:1010C000014614A000F0B4F9FFF730FA014617A06A
:1010D00000F0AEF9FFF736FA01461AA000F0A8F9C1
:1010E000FFF762FA0146BDE810401DA000F0A0B96C
:1010F00010000004000007400D0A434C4B5F476599
:101100007443505546726571203A202538640D0AA3
:1011100000000000434C4B5F4765744858544672CA
:101120006571203A202538640D0A0000434C4B5F5E
:101130004765744C585446726571203A20253864CE
:101140000D0A0000434C4B5F47657450434C4B30D5
:1011500046726571203A202538640D0A00000000AF
:10116000434C4B5F47657450434C4B31467265713D
:10117000203A202538640D0A0000000070B50E48A2
:10118000FFF750FE0D4C4FF4E1352946204600F0A4
:1011900037F80948401CFFF745FE2946084D284608
:1011A00000F02EF8606840F400406060686840F429
:1011B0000040686070BD000011000004001007408E
:1011C000002007404A0503D570228261082282610F
:1011D0000A0503D5426942F0010242618A0401D541
:1011E000064A82614A0401D51F224264090404D5DB
:1011F0008021C16140F20F3181637047010000011D
:101200002DE9FF4104463C480F4600250FC88DE8F4
:101210000F003A492E464FF080408C4206D1D0F85C
:101220001412D0F82002C1F301652AE034498C423F
:1012300006D1D0F81412D0F82002C1F381652BE05A
:1012400030498C4208D1D0F81C12D0F83002C1F3DA
:10125000016500F00F0621E02B498C4208D1D0F83F
:101260001C12D0F83002C1F38165C0F3031615E0FB
:1012700026498C4208D1D0F81C12D0F83002C1F3B4
:101280000175C0F3032609E021498C4206D1D0F84C
:101290001C12D0F830028D0FC0F3033600202063FB
:1012A0000320E060A0681B490840A060E846012DCB
:1012B00002D1FFF7ADF90190002F1AD058F8251090
:1012C000761CB1FBF6F000EB5700B0FBF7F0801E88
:1012D000B0F5803F0AD3B1FBF6F000EBC700B0FBDE
:1012E000F7F06FF0010101EB101001E040F0405009
:1012F0006062BDE8FF810000901A00000000074016
:101300000010074000200740003007400040074021
:10131000005007400FFFF0FF38B52848016821F062
:1013200002010160016821F0040101600220FFF761
:1013300079FD234C01212046FFF7EAFB02212046DC
:10134000FFF7E6FBFFF7B8FC1E49009101230722D7
:1013500000212046FFF710FCFFF7CEFC19490123BE
:1013600020310091092219462046FFF705FC45F27D
:1013700055552B46012200212046FFF7E1FB0122B3
:101380002B4611462046FFF7DBFB00221146204684
:10139000FFF7AEFA022200212046FFF7A9FA002249
:1013A00001212046FFF7A4FA022201212046FFF77F
:1013B0009FFABDE838402820FFF77CBA34000020AF
:1013C0000080004004010020026A22F0FF020A436C
:1013D0000262416841F40061416070470E4810B5F7
:1013E0000068C0B2782814D0582812D07F2804D9B9
:1013F000BDE8104009A000F01BB85A2809D004DC51
:10140000312808D0582806D103E0782801D07A285E
:1014100001D1FFF75BFA10BD00000740696E7661ED
:101420006C696420636F6D6D616E640D0A0000006D
:101430000FB4054B10B503A9044A029800F018F840
:1014400010BC5DF814FB0000D31800002C00002035
:1014500002E008C8121F08C1002AFAD1704770477D
:10146000002001E001C1121F002AFBD170470000DB
:101470002DE9FF4F8DB00F460546002606E02528D2
:101480000BD0DDE90F1290476D1C761C28780028E0
:10149000F5D111B03046BDE8F08F0024A246A14638
:1014A0000122EC4900E0044315F8013F203B02FA19
:1014B00003F00842F7D128782A2810D06FF02F02C5
:1014C0002878A0F13001092914D80AEB8A0102EB2F
:1014D000410144F0020400EB010A6D1CF0E701CF6A
:1014E0005FEA000A03D544F40054CAF1000A44F04C
:1014F00002046D1C28782E2817D115F8010F44F02E
:1015000004042A280ED06FF02F022878A0F13001B1
:1015100009290AD809EB890102EB410100EB010915
:101520006D1CF2E757F8049B6D1C28786C280FD0CF
:1015300006DC4C2817D068280DD06A2814D104E0A6
:10154000742810D07A280FD10DE044F400140AE07A
:1015500044F4801401E044F440146978814202D1DB
:1015600004F580146D1C6D1C2A786E2A1FD00CDCCB
:10157000632A31D004DC002A8BD0582A11D1A3E091
:10158000642A68D0692A0CD165E0732A2ED004DC65
:101590006F2A73D0702A04D19BE0752A6FD0782A05
:1015A0006ED01046DDE90F129047761C50E1C4F36F
:1015B0000250022806D0032809D0042801CF09D000
:1015C000066045E101CFF117C0E9006140E101CFBC
:1015D00006803DE106703BE117F8040B8DF8000032
:1015E00000208DF80100EB46012003E057F804BB12
:1015F0004FF0FF3061074FF0000102D40DE008F119
:101600000101884649450FDA8045F8DB1BF80810D0
:101610000029F4D108E008F1010188468142FADB93
:101620001BF808100029F6D1DDE90F23AAEB08000A
:101630008146214600F036F9304400EB080604E00C
:10164000DDE90F121BF8010B9047B8F10108F7D242
:1016500021464846F7E00A21C4F302534FF0000B3D
:101660000891022B04D001CFC117032B09D00AE047
:10167000FF1D27F00707F7E8020108E032E01FE04E
:1016800020E000B2C117042B01D140B2C117031EE4
:1016900071F1000307DA4FF0000CD0EB0C006CEB9B
:1016A00001012D2302E0230504D52B238DF82430DE
:1016B000012303E0E30701D02023F7E7984658E031
:1016C0000A2110E010210EE010204FF0000B0890CE
:1016D0000CE010214FF0000B44F004044FF0080917
:1016E000089103E008214FF0000B0891C4F3025366
:1016F000022B04D001CF0021032B06D006E0FF1DF2
:1017000027F00707F7E8020103E080B2042B00D1BD
:10171000C0B24FF0000823072BD5702A07D0DDF8A0
:1017200020C08CF0100C5CEA0B0C05D00EE04023BE
:101730008DF82430012308E050EA010306D030235D
:101740008DF824308DF8252002239846DDF820C03E
:101750008CF0080C5CEA0B0C0BD150EA010301D1B0
:10176000630706D530238DF824304FF00108A9F126
:101770000109582A04D038A20B9208AA0A920BE059
:101780003AA2F9E75B46089AFEF792FD0B9B9B5C39
:101790000A9A521E0A92137050EA0102F2D10A9874
:1017A000ADEB000000F1200B600702D524F480347B
:1017B00001E04FF00109D94502DDA9EB0B0000E083
:1017C000002000EB0B0141440890AAEB010AE00362
:1017D00006D4DDE90F232146504600F063F80644A5
:1017E0004FF0000908E009A911F80900DDE90F121E
:1017F000904709F10109761CC145F4DBE0030CD5E3
:10180000DDE90F232146504600F04CF8064404E081
:10181000DDE90F1230209047761C0899481E089089
:101820000029F5DC08E00A980A990078491C0A9119
:10183000DDE90F129047761CBBF10001ABF1010B03
:10184000F1DC21465046DDE90F2300F019F806448B
:101850006D1C1BE609280100303132333435363730
:1018600038396162636465660000000030313233EC
:10187000343536373839414243444546000000008C
:101880002DE9F041044600251E461746880404D47D
:1018900005E039462020B0476D1C641EF9D5284666
:1018A000BDE8F0812DE9F041044600251E46904632
:1018B000C80301D5302700E02027880404D505E0BF
:1018C00041463846B0476D1C641EF9D52846BDE830
:1018D000F08110B50446FFF7B1FA204610BD0000B4
:1018E0001CB5234C236CABB1A16C8AB2A4F8542074
:1018F000606C90420ED0CDE90001215C1DA00A462B
:10190000FFF796FD606C3F282DD0401C6064206C72
:10191000401E2064164C5C34206C98B1B4F848002A
:1019200080B2A4F85400616C81420BD0615C1EA0AF
:10193000FFF77EFD606C3F2817D0401C6064206C70
:10194000401E20640A4808380168890703D50168E9
:1019500021F0020101600168490703D5016821F007
:10196000040101601CBD0020D0E70020E6E7000074
:101970003C00002055415254313A25635B307825B4
:1019800032585D285262797465733A2532642C525C
:10199000686561643A2532642C527461696C3A2539
:1019A0003264290D0A00000055415254323A307811
:1019B0002532580D0A000000FFF7BEF9FFF75AFB69
:1019C000FEF72AFFFFF7AAFAFFF7A6FCFFF7D6FB00
:1019D000FFF786FFFCE7000010B50446016810A081
:1019E000FFF726FD11A06168FFF722FD12A0A16894
:1019F000FFF71EFD13A0E168FFF71AFD14A021698F
:101A0000FFF716FD15A06169FFF712FD16A0A16989
:101A1000FFF70EFDE169BDE8104016A0FFF708BD15
:101A2000723020203D20307825780A007231202045
:101A30003D20307825780A00723220203D20307811
:101A400025780A00723320203D20307825780A005E
:101A5000723132203D20307825780A006C722020C7
:101A60003D20307825780A00706320203D203078B2
:101A700025780A00707372203D20307825780A009E
:101A800002484168491C4160704700003400002052
:101A9000001BB7000000000000800000001BB70022
:101AA000001BB7000000000000800000001BB70012
:101AB000001BB7000000000000800000001BB70002
:101AC000001BB700008000000000000000000000C4
:101AD000000000001027000000000000001BB700FD
:101AE000001B000000000020F40000005014000063
:101AF000F41B0000F40000205408000060140000F3
:101B0000001BB7000C000000001BB700001BB70053
:101B1000008000000000000010270000000000000E
:101B20000000000000000000001BB70000000000E3
:101B300000000000000000000000000000000000A5
:101B40000000000000000000000000000000000095
:101B50000000000000000000000000000000000085
:101B60000000000000000000000000000000000075
:101B70000000000000000000000000000000000065
:101B800000000000000000001F0000000000000036
:101B90000000000000000000000000000000000045
:101BA0000000000000000000000000000000000035
:101BB0000000000000000000000000000000000025
:101BC0000000000000000000000000000000000015
:101BD0000000000000000000000000000000000005
:101BE000000000001F0000000000000000000000D6
:041BF00000000000F1
:0400000500000225D0
:00000001FF
